{
  "contractName": "DTube",
  "abi": [
    {
      "inputs": [],
      "stateMutability": "nonpayable",
      "type": "constructor"
    },
    {
      "anonymous": false,
      "inputs": [
        {
          "indexed": false,
          "internalType": "uint256",
          "name": "id",
          "type": "uint256"
        },
        {
          "indexed": false,
          "internalType": "string",
          "name": "hash",
          "type": "string"
        },
        {
          "indexed": false,
          "internalType": "string",
          "name": "title",
          "type": "string"
        },
        {
          "indexed": false,
          "internalType": "address",
          "name": "author",
          "type": "address"
        }
      ],
      "name": "VideoUploaded",
      "type": "event"
    },
    {
      "inputs": [
        {
          "internalType": "uint256",
          "name": "",
          "type": "uint256"
        }
      ],
      "name": "Videos",
      "outputs": [
        {
          "internalType": "uint256",
          "name": "id",
          "type": "uint256"
        },
        {
          "internalType": "string",
          "name": "hash",
          "type": "string"
        },
        {
          "internalType": "string",
          "name": "title",
          "type": "string"
        },
        {
          "internalType": "address",
          "name": "author",
          "type": "address"
        }
      ],
      "stateMutability": "view",
      "type": "function",
      "constant": true
    },
    {
      "inputs": [],
      "name": "name",
      "outputs": [
        {
          "internalType": "string",
          "name": "",
          "type": "string"
        }
      ],
      "stateMutability": "view",
      "type": "function",
      "constant": true
    },
    {
      "inputs": [],
      "name": "videoCount",
      "outputs": [
        {
          "internalType": "uint256",
          "name": "",
          "type": "uint256"
        }
      ],
      "stateMutability": "view",
      "type": "function",
      "constant": true
    },
    {
      "inputs": [
        {
          "internalType": "string",
          "name": "_videoHash",
          "type": "string"
        },
        {
          "internalType": "string",
          "name": "_title",
          "type": "string"
        }
      ],
      "name": "uploadVideo",
      "outputs": [],
      "stateMutability": "nonpayable",
      "type": "function"
    }
  ],
  "bytecode": "0x6080604052600080556040518060400160405280600581526020017f44547562650000000000000000000000000000000000000000000000000000008152506001908051906020019062000055929190620001cc565b503480156200006357600080fd5b506000808154809291906200007890620002b5565b9190505550604051806080016040528060005481526020016040518060400160405280600481526020017f233132330000000000000000000000000000000000000000000000000000000081525081526020016040518060400160405280600781526020017f74657374696e670000000000000000000000000000000000000000000000000081525081526020013373ffffffffffffffffffffffffffffffffffffffff1681525060026000805481526020019081526020016000206000820151816000015560208201518160010190805190602001906200015c929190620001cc565b5060408201518160020190805190602001906200017b929190620001cc565b5060608201518160030160006101000a81548173ffffffffffffffffffffffffffffffffffffffff021916908373ffffffffffffffffffffffffffffffffffffffff16021790555090505062000368565b828054620001da9062000332565b90600052602060002090601f016020900481019282620001fe57600085556200024a565b82601f106200021957805160ff19168380011785556200024a565b828001600101855582156200024a579182015b82811115620002495782518255916020019190600101906200022c565b5b5090506200025991906200025d565b5090565b5b80821115620002785760008160009055506001016200025e565b5090565b7f4e487b7100000000000000000000000000000000000000000000000000000000600052601160045260246000fd5b6000819050919050565b6000620002c282620002ab565b91507fffffffffffffffffffffffffffffffffffffffffffffffffffffffffffffffff821415620002f857620002f76200027c565b5b600182019050919050565b7f4e487b7100000000000000000000000000000000000000000000000000000000600052602260045260246000fd5b600060028204905060018216806200034b57607f821691505b6020821081141562000362576200036162000303565b5b50919050565b6109aa80620003786000396000f3fe608060405234801561001057600080fd5b506004361061004c5760003560e01c806306fdde03146100515780638a5447c51461006f578063c61b5f4c1461008b578063d910265f146100a9575b600080fd5b6100596100dc565b6040516100669190610597565b60405180910390f35b61008960048036038101906100849190610702565b61016a565b005b6100936102f5565b6040516100a09190610793565b60405180910390f35b6100c360048036038101906100be91906107da565b6102fb565b6040516100d39493929190610848565b60405180910390f35b600180546100e9906108ca565b80601f0160208091040260200160405190810160405280929190818152602001828054610115906108ca565b80156101625780601f1061013757610100808354040283529160200191610162565b820191906000526020600020905b81548152906001019060200180831161014557829003601f168201915b505050505081565b600082511161017857600080fd5b600081511161018657600080fd5b600073ffffffffffffffffffffffffffffffffffffffff163373ffffffffffffffffffffffffffffffffffffffff1614156101c057600080fd5b6000808154809291906101d29061092b565b9190505550604051806080016040528060005481526020018381526020018281526020013373ffffffffffffffffffffffffffffffffffffffff16815250600260008054815260200190815260200160002060008201518160000155602082015181600101908051906020019061024a92919061045b565b50604082015181600201908051906020019061026792919061045b565b5060608201518160030160006101000a81548173ffffffffffffffffffffffffffffffffffffffff021916908373ffffffffffffffffffffffffffffffffffffffff1602179055509050507f2c44b862f4b4e08a26a765f9499900759a9ec95360a6f174d53163bd5d367f676000548383336040516102e99493929190610848565b60405180910390a15050565b60005481565b6002602052806000526040600020600091509050806000015490806001018054610324906108ca565b80601f0160208091040260200160405190810160405280929190818152602001828054610350906108ca565b801561039d5780601f106103725761010080835404028352916020019161039d565b820191906000526020600020905b81548152906001019060200180831161038057829003601f168201915b5050505050908060020180546103b2906108ca565b80601f01602080910402602001604051908101604052809291908181526020018280546103de906108ca565b801561042b5780601f106104005761010080835404028352916020019161042b565b820191906000526020600020905b81548152906001019060200180831161040e57829003601f168201915b5050505050908060030160009054906101000a900473ffffffffffffffffffffffffffffffffffffffff16905084565b828054610467906108ca565b90600052602060002090601f01602090048101928261048957600085556104d0565b82601f106104a257805160ff19168380011785556104d0565b828001600101855582156104d0579182015b828111156104cf5782518255916020019190600101906104b4565b5b5090506104dd91906104e1565b5090565b5b808211156104fa5760008160009055506001016104e2565b5090565b600081519050919050565b600082825260208201905092915050565b60005b8381101561053857808201518184015260208101905061051d565b83811115610547576000848401525b50505050565b6000601f19601f8301169050919050565b6000610569826104fe565b6105738185610509565b935061058381856020860161051a565b61058c8161054d565b840191505092915050565b600060208201905081810360008301526105b1818461055e565b905092915050565b6000604051905090565b600080fd5b600080fd5b600080fd5b600080fd5b7f4e487b7100000000000000000000000000000000000000000000000000000000600052604160045260246000fd5b61060f8261054d565b810181811067ffffffffffffffff8211171561062e5761062d6105d7565b5b80604052505050565b60006106416105b9565b905061064d8282610606565b919050565b600067ffffffffffffffff82111561066d5761066c6105d7565b5b6106768261054d565b9050602081019050919050565b82818337600083830152505050565b60006106a56106a084610652565b610637565b9050828152602081018484840111156106c1576106c06105d2565b5b6106cc848285610683565b509392505050565b600082601f8301126106e9576106e86105cd565b5b81356106f9848260208601610692565b91505092915050565b60008060408385031215610719576107186105c3565b5b600083013567ffffffffffffffff811115610737576107366105c8565b5b610743858286016106d4565b925050602083013567ffffffffffffffff811115610764576107636105c8565b5b610770858286016106d4565b9150509250929050565b6000819050919050565b61078d8161077a565b82525050565b60006020820190506107a86000830184610784565b92915050565b6107b78161077a565b81146107c257600080fd5b50565b6000813590506107d4816107ae565b92915050565b6000602082840312156107f0576107ef6105c3565b5b60006107fe848285016107c5565b91505092915050565b600073ffffffffffffffffffffffffffffffffffffffff82169050919050565b600061083282610807565b9050919050565b61084281610827565b82525050565b600060808201905061085d6000830187610784565b818103602083015261086f818661055e565b90508181036040830152610883818561055e565b90506108926060830184610839565b95945050505050565b7f4e487b7100000000000000000000000000000000000000000000000000000000600052602260045260246000fd5b600060028204905060018216806108e257607f821691505b602082108114156108f6576108f561089b565b5b50919050565b7f4e487b7100000000000000000000000000000000000000000000000000000000600052601160045260246000fd5b60006109368261077a565b91507fffffffffffffffffffffffffffffffffffffffffffffffffffffffffffffffff821415610969576109686108fc565b5b60018201905091905056fea2646970667358221220e8fc7e974895407d74b1ee83cd6ce8d14b009aa7f226e7bf66cbff8c521f699f64736f6c634300080b0033",
  "immutableReferences": {},
  "source": "pragma solidity >=0.4.22 <0.9.0;\r\n\r\ncontract DTube{\r\n    uint public videoCount=0;\r\n    string public name='DTube';\r\n\r\n    mapping(uint => Video) public Videos;\r\n    struct Video{\r\n        uint id;\r\n        string hash;\r\n        string title;\r\n        address author;\r\n    }\r\n    event VideoUploaded(\r\n        uint id,\r\n        string hash,\r\n        string title,\r\n        address author\r\n    );\r\n    constructor() public{\r\n        videoCount++;\r\n        Videos[videoCount]=Video(videoCount,'#123','testing',msg.sender);\r\n    }\r\n    function uploadVideo(string memory _videoHash, string memory _title) public{\r\n        require(bytes(_videoHash).length>0);\r\n        require(bytes(_title).length>0);\r\n        require(msg.sender != address(0));\r\n        videoCount++;\r\n        Videos[videoCount]=Video(videoCount,_videoHash,_title,msg.sender);\r\n        emit VideoUploaded(videoCount,_videoHash,_title,msg.sender);\r\n    }\r\n}\r\n",
  "sourcePath": "C:\\Users\\manee\\Documents\\React Projects\\Projects\\dtube\\contracts\\DTube.sol",
  "compiler": {
    "name": "solc",
    "version": "0.8.11+commit.d7f03943.Emscripten.clang"
  },
  "schemaVersion": "3.4.4",
  "updatedAt": "2022-05-12T14:19:01.011Z",
  "networkType": "ethereum",
  "devdoc": {
    "kind": "dev",
    "methods": {},
    "version": 1
  },
  "userdoc": {
    "kind": "user",
    "methods": {},
    "version": 1
  }
}